{"contracts/Escrow.sol":{"Escrow":{"abi":[{"inputs":[{"internalType":"uint256","name":"_itemValue","type":"uint256"}],"stateMutability":"payable","type":"constructor"},{"inputs":[],"name":"ContractLocked","type":"error"},{"inputs":[],"name":"IncorrectPaymentAmount","type":"error"},{"inputs":[],"name":"InsufficientContractBalance","type":"error"},{"inputs":[],"name":"InvalidAddress","type":"error"},{"inputs":[],"name":"InvalidState","type":"error"},{"inputs":[],"name":"OnlyBuyer","type":"error"},{"inputs":[],"name":"OnlySeller","type":"error"},{"inputs":[],"name":"TransferFailed","type":"error"},{"anonymous":false,"inputs":[{"indexed":true,"internalType":"address","name":"initiator","type":"address"},{"indexed":false,"internalType":"uint256","name":"timestamp","type":"uint256"}],"name":"DeliveryCancelled","type":"event"},{"anonymous":false,"inputs":[{"indexed":true,"internalType":"address","name":"from","type":"address"},{"indexed":false,"internalType":"uint256","name":"amount","type":"uint256"},{"indexed":false,"internalType":"uint256","name":"timestamp","type":"uint256"}],"name":"DepositMade","type":"event"},{"anonymous":false,"inputs":[{"indexed":true,"internalType":"address","name":"to","type":"address"},{"indexed":false,"internalType":"uint256","name":"amount","type":"uint256"},{"indexed":false,"internalType":"uint256","name":"timestamp","type":"uint256"}],"name":"FundsDistributed","type":"event"},{"anonymous":false,"inputs":[{"indexed":false,"internalType":"uint256","name":"timestamp","type":"uint256"}],"name":"ItemDelivered","type":"event"},{"anonymous":false,"inputs":[{"indexed":false,"internalType":"enum Escrow.PackageState","name":"previousState","type":"uint8"},{"indexed":false,"internalType":"enum Escrow.PackageState","name":"newState","type":"uint8"}],"name":"StateChanged","type":"event"},{"inputs":[],"name":"buyer","outputs":[{"internalType":"address payable","name":"","type":"address"}],"stateMutability":"view","type":"function"},{"inputs":[],"name":"buyerDeposit","outputs":[{"internalType":"uint256","name":"","type":"uint256"}],"stateMutability":"view","type":"function"},{"inputs":[],"name":"cancelPurchase","outputs":[],"stateMutability":"nonpayable","type":"function"},{"inputs":[],"name":"confirmDelivery","outputs":[],"stateMutability":"nonpayable","type":"function"},{"inputs":[],"name":"confirmPurchase","outputs":[],"stateMutability":"payable","type":"function"},{"inputs":[],"name":"confirmShipping","outputs":[],"stateMutability":"nonpayable","type":"function"},{"inputs":[],"name":"getContractBalance","outputs":[{"internalType":"uint256","name":"","type":"uint256"}],"stateMutability":"view","type":"function"},{"inputs":[],"name":"getEscrowStatus","outputs":[{"internalType":"enum Escrow.PackageState","name":"currentState","type":"uint8"},{"internalType":"uint256","name":"contractBalance","type":"uint256"},{"internalType":"uint256","name":"buyerDepositAmount","type":"uint256"},{"internalType":"uint256","name":"sellerDepositAmount","type":"uint256"}],"stateMutability":"view","type":"function"},{"inputs":[],"name":"itemValue","outputs":[{"internalType":"uint256","name":"","type":"uint256"}],"stateMutability":"view","type":"function"},{"inputs":[],"name":"seller","outputs":[{"internalType":"address payable","name":"","type":"address"}],"stateMutability":"view","type":"function"},{"inputs":[],"name":"sellerDeposit","outputs":[{"internalType":"uint256","name":"","type":"uint256"}],"stateMutability":"view","type":"function"},{"inputs":[],"name":"state","outputs":[{"internalType":"enum Escrow.PackageState","name":"","type":"uint8"}],"stateMutability":"view","type":"function"}],"evm":{"bytecode":{"linkReferences":{},"object":"60c060405260405161187d38038061187d833981810160405281019061002591906101e0565b6000810361005f576040517f6992e1ff00000000000000000000000000000000000000000000000000000000815260040160405180910390fd5b80600261006c919061023c565b34146100a4576040517f6992e1ff00000000000000000000000000000000000000000000000000000000815260040160405180910390fd5b3373ffffffffffffffffffffffffffffffffffffffff1660a08173ffffffffffffffffffffffffffffffffffffffff16815250508060808181525050346002819055506001600360016101000a81548160ff0219169083600581111561010d5761010c61027e565b5b021790555060a05173ffffffffffffffffffffffffffffffffffffffff167f0b05f0d1cd0819f155b8a61f60baf7767c1ee49d04aeaab701df236140eb93f9344260405161015c9291906102bc565b60405180910390a27fe8a97ea87e4388fa22d496b95a8ed5ced6717f49790318de2b928aaf37a021d86000600160405161019792919061032d565b60405180910390a150610356565b600080fd5b6000819050919050565b6101bd816101aa565b81146101c857600080fd5b50565b6000815190506101da816101b4565b92915050565b6000602082840312156101f6576101f56101a5565b5b6000610204848285016101cb565b91505092915050565b7f4e487b7100000000000000000000000000000000000000000000000000000000600052601160045260246000fd5b6000610247826101aa565b9150610252836101aa565b9250828202610260816101aa565b915082820484148315176102775761027661020d565b5b5092915050565b7f4e487b7100000000000000000000000000000000000000000000000000000000600052602160045260246000fd5b6102b6816101aa565b82525050565b60006040820190506102d160008301856102ad565b6102de60208301846102ad565b9392505050565b600681106102f6576102f561027e565b5b50565b6000819050610307826102e5565b919050565b6000610317826102f9565b9050919050565b6103278161030c565b82525050565b6000604082019050610342600083018561031e565b61034f602083018461031e565b9392505050565b60805160a0516114c36103ba600039600081816102580152818161027c015281816106420152818161070301528181610acd01528181610bdf0152610ca201526000818161059f015281816105d101528181610feb015261119301526114c36000f3fe6080604052600436106100a75760003560e01c80637150d8ae116100645780637150d8ae14610189578063a0579587146101b4578063ab460a26146101df578063c19d93fb146101f6578063d696069714610221578063ff3cc6b01461022b576100a7565b806308551a53146100ac5780634a93e1e1146100d75780634c1786ea146100ee5780635e10177b146101195780636234216d146101305780636f9fb98a1461015e575b600080fd5b3480156100b857600080fd5b506100c1610256565b6040516100ce91906111f6565b60405180910390f35b3480156100e357600080fd5b506100ec61027a565b005b3480156100fa57600080fd5b506101036103f7565b604051610110919061122a565b60405180910390f35b34801561012557600080fd5b5061012e6103fd565b005b34801561013c57600080fd5b50610145610947565b60405161015594939291906112bc565b60405180910390f35b34801561016a57600080fd5b50610173610972565b604051610180919061122a565b60405180910390f35b34801561019557600080fd5b5061019e61097a565b6040516101ab91906111f6565b60405180910390f35b3480156101c057600080fd5b506101c961099e565b6040516101d6919061122a565b60405180910390f35b3480156101eb57600080fd5b506101f46109a4565b005b34801561020257600080fd5b5061020b610f01565b6040516102189190611301565b60405180910390f35b610229610f14565b005b34801561023757600080fd5b50610240611191565b60405161024d919061122a565b60405180910390f35b7f000000000000000000000000000000000000000000000000000000000000000081565b7f000000000000000000000000000000000000000000000000000000000000000073ffffffffffffffffffffffffffffffffffffffff163373ffffffffffffffffffffffffffffffffffffffff16146102ff576040517f85d1f72600000000000000000000000000000000000000000000000000000000815260040160405180910390fd5b600280600581111561031457610313611245565b5b600360019054906101000a900460ff16600581111561033657610335611245565b5b1461036d576040517fbaf3f0f700000000000000000000000000000000000000000000000000000000815260040160405180910390fd5b6000600360019054906101000a900460ff16905060038060016101000a81548160ff021916908360058111156103a6576103a5611245565b5b02179055507fe8a97ea87e4388fa22d496b95a8ed5ced6717f49790318de2b928aaf37a021d881600360019054906101000a900460ff166040516103eb92919061131c565b60405180910390a15050565b60025481565b600360009054906101000a900460ff1615610444576040517f6f5ffb7e00000000000000000000000000000000000000000000000000000000815260040160405180910390fd5b6001600360006101000a81548160ff02191690831515021790555060008054906101000a900473ffffffffffffffffffffffffffffffffffffffff1673ffffffffffffffffffffffffffffffffffffffff163373ffffffffffffffffffffffffffffffffffffffff16146104e4576040517f86efbb5500000000000000000000000000000000000000000000000000000000815260040160405180910390fd5b60038060058111156104f9576104f8611245565b5b600360019054906101000a900460ff16600581111561051b5761051a611245565b5b14610552576040517fbaf3f0f700000000000000000000000000000000000000000000000000000000815260040160405180910390fd5b6001546002546105629190611374565b47101561059b576040517f786e0a9900000000000000000000000000000000000000000000000000000000815260040160405180910390fd5b60007f00000000000000000000000000000000000000000000000000000000000000006001546105cb91906113a8565b905060007f00000000000000000000000000000000000000000000000000000000000000006002546105fd9190611374565b90506000600360019054906101000a900460ff1690506004600360016101000a81548160ff0219169083600581111561063957610638611245565b5b021790555060007f000000000000000000000000000000000000000000000000000000000000000073ffffffffffffffffffffffffffffffffffffffff16836040516106849061140d565b60006040518083038185875af1925050503d80600081146106c1576040519150601f19603f3d011682016040523d82523d6000602084013e6106c6565b606091505b5050905080610701576040517f90b8ec1800000000000000000000000000000000000000000000000000000000815260040160405180910390fd5b7f000000000000000000000000000000000000000000000000000000000000000073ffffffffffffffffffffffffffffffffffffffff167f080babe757d4e5c7db3b7bd10606a7bf07a9857f660977ada6ca7a4d329376c88442604051610769929190611422565b60405180910390a260008060009054906101000a900473ffffffffffffffffffffffffffffffffffffffff1673ffffffffffffffffffffffffffffffffffffffff16856040516107b89061140d565b60006040518083038185875af1925050503d80600081146107f5576040519150601f19603f3d011682016040523d82523d6000602084013e6107fa565b606091505b5050905080610835576040517f90b8ec1800000000000000000000000000000000000000000000000000000000815260040160405180910390fd5b60008054906101000a900473ffffffffffffffffffffffffffffffffffffffff1673ffffffffffffffffffffffffffffffffffffffff167f080babe757d4e5c7db3b7bd10606a7bf07a9857f660977ada6ca7a4d329376c8864260405161089d929190611422565b60405180910390a27fd2f1cdd76b4e7bfba9c07af47c5c4f187ffbbd992b4fa1afce4df6a00a166e85426040516108d4919061122a565b60405180910390a17fe8a97ea87e4388fa22d496b95a8ed5ced6717f49790318de2b928aaf37a021d883600360019054906101000a900460ff1660405161091c92919061131c565b60405180910390a15050505050506000600360006101000a81548160ff021916908315150217905550565b600080600080600360019054906101000a900460ff1647600154600254935093509350935090919293565b600047905090565b60008054906101000a900473ffffffffffffffffffffffffffffffffffffffff1681565b60015481565b600360009054906101000a900460ff16156109eb576040517f6f5ffb7e00000000000000000000000000000000000000000000000000000000815260040160405180910390fd5b6001600360006101000a81548160ff0219169083151502179055506002806005811115610a1b57610a1a611245565b5b600360019054906101000a900460ff166005811115610a3d57610a3c611245565b5b14610a74576040517fbaf3f0f700000000000000000000000000000000000000000000000000000000815260040160405180910390fd5b60008054906101000a900473ffffffffffffffffffffffffffffffffffffffff1673ffffffffffffffffffffffffffffffffffffffff163373ffffffffffffffffffffffffffffffffffffffff1614158015610b1c57507f000000000000000000000000000000000000000000000000000000000000000073ffffffffffffffffffffffffffffffffffffffff163373ffffffffffffffffffffffffffffffffffffffff1614155b15610b53576040517fe6c4247b00000000000000000000000000000000000000000000000000000000815260040160405180910390fd5b600154600254610b639190611374565b471015610b9c576040517f786e0a9900000000000000000000000000000000000000000000000000000000815260040160405180910390fd5b6000600360019054906101000a900460ff1690506005600360016101000a81548160ff02191690836005811115610bd657610bd5611245565b5b021790555060007f000000000000000000000000000000000000000000000000000000000000000073ffffffffffffffffffffffffffffffffffffffff16600254604051610c239061140d565b60006040518083038185875af1925050503d8060008114610c60576040519150601f19603f3d011682016040523d82523d6000602084013e610c65565b606091505b5050905080610ca0576040517f90b8ec1800000000000000000000000000000000000000000000000000000000815260040160405180910390fd5b7f000000000000000000000000000000000000000000000000000000000000000073ffffffffffffffffffffffffffffffffffffffff167f080babe757d4e5c7db3b7bd10606a7bf07a9857f660977ada6ca7a4d329376c860025442604051610d0a929190611422565b60405180910390a260008060009054906101000a900473ffffffffffffffffffffffffffffffffffffffff1673ffffffffffffffffffffffffffffffffffffffff16600154604051610d5b9061140d565b60006040518083038185875af1925050503d8060008114610d98576040519150601f19603f3d011682016040523d82523d6000602084013e610d9d565b606091505b5050905080610dd8576040517f90b8ec1800000000000000000000000000000000000000000000000000000000815260040160405180910390fd5b60008054906101000a900473ffffffffffffffffffffffffffffffffffffffff1673ffffffffffffffffffffffffffffffffffffffff167f080babe757d4e5c7db3b7bd10606a7bf07a9857f660977ada6ca7a4d329376c860015442604051610e42929190611422565b60405180910390a23373ffffffffffffffffffffffffffffffffffffffff167fccc59847af7a167ec8b2425941698e5398a4eab0218fa343acee62e5f01f564342604051610e90919061122a565b60405180910390a27fe8a97ea87e4388fa22d496b95a8ed5ced6717f49790318de2b928aaf37a021d883600360019054906101000a900460ff16604051610ed892919061131c565b60405180910390a1505050506000600360006101000a81548160ff021916908315150217905550565b600360019054906101000a900460ff1681565b6001806005811115610f2957610f28611245565b5b600360019054906101000a900460ff166005811115610f4b57610f4a611245565b5b14610f82576040517fbaf3f0f700000000000000000000000000000000000000000000000000000000815260040160405180910390fd5b33600073ffffffffffffffffffffffffffffffffffffffff168173ffffffffffffffffffffffffffffffffffffffff1603610fe9576040517fe6c4247b00000000000000000000000000000000000000000000000000000000815260040160405180910390fd5b7f00000000000000000000000000000000000000000000000000000000000000006002611016919061144b565b341461104e576040517f6992e1ff00000000000000000000000000000000000000000000000000000000815260040160405180910390fd5b336000806101000a81548173ffffffffffffffffffffffffffffffffffffffff021916908373ffffffffffffffffffffffffffffffffffffffff160217905550346001819055506000600360019054906101000a900460ff1690506002600360016101000a81548160ff021916908360058111156110cf576110ce611245565b5b021790555060008054906101000a900473ffffffffffffffffffffffffffffffffffffffff1673ffffffffffffffffffffffffffffffffffffffff167f0b05f0d1cd0819f155b8a61f60baf7767c1ee49d04aeaab701df236140eb93f9344260405161113c929190611422565b60405180910390a27fe8a97ea87e4388fa22d496b95a8ed5ced6717f49790318de2b928aaf37a021d881600360019054906101000a900460ff1660405161118492919061131c565b60405180910390a1505050565b7f000000000000000000000000000000000000000000000000000000000000000081565b600073ffffffffffffffffffffffffffffffffffffffff82169050919050565b60006111e0826111b5565b9050919050565b6111f0816111d5565b82525050565b600060208201905061120b60008301846111e7565b92915050565b6000819050919050565b61122481611211565b82525050565b600060208201905061123f600083018461121b565b92915050565b7f4e487b7100000000000000000000000000000000000000000000000000000000600052602160045260246000fd5b6006811061128557611284611245565b5b50565b600081905061129682611274565b919050565b60006112a682611288565b9050919050565b6112b68161129b565b82525050565b60006080820190506112d160008301876112ad565b6112de602083018661121b565b6112eb604083018561121b565b6112f8606083018461121b565b95945050505050565b600060208201905061131660008301846112ad565b92915050565b600060408201905061133160008301856112ad565b61133e60208301846112ad565b9392505050565b7f4e487b7100000000000000000000000000000000000000000000000000000000600052601160045260246000fd5b600061137f82611211565b915061138a83611211565b92508282019050808211156113a2576113a1611345565b5b92915050565b60006113b382611211565b91506113be83611211565b92508282039050818111156113d6576113d5611345565b5b92915050565b600081905092915050565b50565b60006113f76000836113dc565b9150611402826113e7565b600082019050919050565b6000611418826113ea565b9150819050919050565b6000604082019050611437600083018561121b565b611444602083018461121b565b9392505050565b600061145682611211565b915061146183611211565b925082820261146f81611211565b9150828204841483151761148657611485611345565b5b509291505056fea2646970667358221220b8b098fb8d854fdfd8807c92ecccf698a4027be24304b69d14fa04d984cd992664736f6c634300081c0033","opcodes":"PUSH1 0xC0 PUSH1 0x40 MSTORE PUSH1 0x40 MLOAD PUSH2 0x187D CODESIZE SUB DUP1 PUSH2 0x187D DUP4 CODECOPY DUP2 DUP2 ADD PUSH1 0x40 MSTORE DUP2 ADD SWAP1 PUSH2 0x25 SWAP2 SWAP1 PUSH2 0x1E0 JUMP JUMPDEST PUSH1 0x0 DUP2 SUB PUSH2 0x5F JUMPI PUSH1 0x40 MLOAD PUSH32 0x6992E1FF00000000000000000000000000000000000000000000000000000000 DUP2 MSTORE PUSH1 0x4 ADD PUSH1 0x40 MLOAD DUP1 SWAP2 SUB SWAP1 REVERT JUMPDEST DUP1 PUSH1 0x2 PUSH2 0x6C SWAP2 SWAP1 PUSH2 0x23C JUMP JUMPDEST CALLVALUE EQ PUSH2 0xA4 JUMPI PUSH1 0x40 MLOAD PUSH32 0x6992E1FF00000000000000000000000000000000000000000000000000000000 DUP2 MSTORE PUSH1 0x4 ADD PUSH1 0x40 MLOAD DUP1 SWAP2 SUB SWAP1 REVERT JUMPDEST CALLER PUSH20 0xFFFFFFFFFFFFFFFFFFFFFFFFFFFFFFFFFFFFFFFF AND PUSH1 0xA0 DUP2 PUSH20 0xFFFFFFFFFFFFFFFFFFFFFFFFFFFFFFFFFFFFFFFF AND DUP2 MSTORE POP POP DUP1 PUSH1 0x80 DUP2 DUP2 MSTORE POP POP CALLVALUE PUSH1 0x2 DUP2 SWAP1 SSTORE POP PUSH1 0x1 PUSH1 0x3 PUSH1 0x1 PUSH2 0x100 EXP DUP2 SLOAD DUP2 PUSH1 0xFF MUL NOT AND SWAP1 DUP4 PUSH1 0x5 DUP2 GT ISZERO PUSH2 0x10D JUMPI PUSH2 0x10C PUSH2 0x27E JUMP JUMPDEST JUMPDEST MUL OR SWAP1 SSTORE POP PUSH1 0xA0 MLOAD PUSH20 0xFFFFFFFFFFFFFFFFFFFFFFFFFFFFFFFFFFFFFFFF AND PUSH32 0xB05F0D1CD0819F155B8A61F60BAF7767C1EE49D04AEAAB701DF236140EB93F9 CALLVALUE TIMESTAMP PUSH1 0x40 MLOAD PUSH2 0x15C SWAP3 SWAP2 SWAP1 PUSH2 0x2BC JUMP JUMPDEST PUSH1 0x40 MLOAD DUP1 SWAP2 SUB SWAP1 LOG2 PUSH32 0xE8A97EA87E4388FA22D496B95A8ED5CED6717F49790318DE2B928AAF37A021D8 PUSH1 0x0 PUSH1 0x1 PUSH1 0x40 MLOAD PUSH2 0x197 SWAP3 SWAP2 SWAP1 PUSH2 0x32D JUMP JUMPDEST PUSH1 0x40 MLOAD DUP1 SWAP2 SUB SWAP1 LOG1 POP PUSH2 0x356 JUMP JUMPDEST PUSH1 0x0 DUP1 REVERT JUMPDEST PUSH1 0x0 DUP2 SWAP1 POP SWAP2 SWAP1 POP JUMP JUMPDEST PUSH2 0x1BD DUP2 PUSH2 0x1AA JUMP JUMPDEST DUP2 EQ PUSH2 0x1C8 JUMPI PUSH1 0x0 DUP1 REVERT JUMPDEST POP JUMP JUMPDEST PUSH1 0x0 DUP2 MLOAD SWAP1 POP PUSH2 0x1DA DUP2 PUSH2 0x1B4 JUMP JUMPDEST SWAP3 SWAP2 POP POP JUMP JUMPDEST PUSH1 0x0 PUSH1 0x20 DUP3 DUP5 SUB SLT ISZERO PUSH2 0x1F6 JUMPI PUSH2 0x1F5 PUSH2 0x1A5 JUMP JUMPDEST JUMPDEST PUSH1 0x0 PUSH2 0x204 DUP5 DUP3 DUP6 ADD PUSH2 0x1CB JUMP JUMPDEST SWAP2 POP POP SWAP3 SWAP2 POP POP JUMP JUMPDEST PUSH32 0x4E487B7100000000000000000000000000000000000000000000000000000000 PUSH1 0x0 MSTORE PUSH1 0x11 PUSH1 0x4 MSTORE PUSH1 0x24 PUSH1 0x0 REVERT JUMPDEST PUSH1 0x0 PUSH2 0x247 DUP3 PUSH2 0x1AA JUMP JUMPDEST SWAP2 POP PUSH2 0x252 DUP4 PUSH2 0x1AA JUMP JUMPDEST SWAP3 POP DUP3 DUP3 MUL PUSH2 0x260 DUP2 PUSH2 0x1AA JUMP JUMPDEST SWAP2 POP DUP3 DUP3 DIV DUP5 EQ DUP4 ISZERO OR PUSH2 0x277 JUMPI PUSH2 0x276 PUSH2 0x20D JUMP JUMPDEST JUMPDEST POP SWAP3 SWAP2 POP POP JUMP JUMPDEST PUSH32 0x4E487B7100000000000000000000000000000000000000000000000000000000 PUSH1 0x0 MSTORE PUSH1 0x21 PUSH1 0x4 MSTORE PUSH1 0x24 PUSH1 0x0 REVERT JUMPDEST PUSH2 0x2B6 DUP2 PUSH2 0x1AA JUMP JUMPDEST DUP3 MSTORE POP POP JUMP JUMPDEST PUSH1 0x0 PUSH1 0x40 DUP3 ADD SWAP1 POP PUSH2 0x2D1 PUSH1 0x0 DUP4 ADD DUP6 PUSH2 0x2AD JUMP JUMPDEST PUSH2 0x2DE PUSH1 0x20 DUP4 ADD DUP5 PUSH2 0x2AD JUMP JUMPDEST SWAP4 SWAP3 POP POP POP JUMP JUMPDEST PUSH1 0x6 DUP2 LT PUSH2 0x2F6 JUMPI PUSH2 0x2F5 PUSH2 0x27E JUMP JUMPDEST JUMPDEST POP JUMP JUMPDEST PUSH1 0x0 DUP2 SWAP1 POP PUSH2 0x307 DUP3 PUSH2 0x2E5 JUMP JUMPDEST SWAP2 SWAP1 POP JUMP JUMPDEST PUSH1 0x0 PUSH2 0x317 DUP3 PUSH2 0x2F9 JUMP JUMPDEST SWAP1 POP SWAP2 SWAP1 POP JUMP JUMPDEST PUSH2 0x327 DUP2 PUSH2 0x30C JUMP JUMPDEST DUP3 MSTORE POP POP JUMP JUMPDEST PUSH1 0x0 PUSH1 0x40 DUP3 ADD SWAP1 POP PUSH2 0x342 PUSH1 0x0 DUP4 ADD DUP6 PUSH2 0x31E JUMP JUMPDEST PUSH2 0x34F PUSH1 0x20 DUP4 ADD DUP5 PUSH2 0x31E JUMP JUMPDEST SWAP4 SWAP3 POP POP POP JUMP JUMPDEST PUSH1 0x80 MLOAD PUSH1 0xA0 MLOAD PUSH2 0x14C3 PUSH2 0x3BA PUSH1 0x0 CODECOPY PUSH1 0x0 DUP2 DUP2 PUSH2 0x258 ADD MSTORE DUP2 DUP2 PUSH2 0x27C ADD MSTORE DUP2 DUP2 PUSH2 0x642 ADD MSTORE DUP2 DUP2 PUSH2 0x703 ADD MSTORE DUP2 DUP2 PUSH2 0xACD ADD MSTORE DUP2 DUP2 PUSH2 0xBDF ADD MSTORE PUSH2 0xCA2 ADD MSTORE PUSH1 0x0 DUP2 DUP2 PUSH2 0x59F ADD MSTORE DUP2 DUP2 PUSH2 0x5D1 ADD MSTORE DUP2 DUP2 PUSH2 0xFEB ADD MSTORE PUSH2 0x1193 ADD MSTORE PUSH2 0x14C3 PUSH1 0x0 RETURN INVALID PUSH1 0x80 PUSH1 0x40 MSTORE PUSH1 0x4 CALLDATASIZE LT PUSH2 0xA7 JUMPI PUSH1 0x0 CALLDATALOAD PUSH1 0xE0 SHR DUP1 PUSH4 0x7150D8AE GT PUSH2 0x64 JUMPI DUP1 PUSH4 0x7150D8AE EQ PUSH2 0x189 JUMPI DUP1 PUSH4 0xA0579587 EQ PUSH2 0x1B4 JUMPI DUP1 PUSH4 0xAB460A26 EQ PUSH2 0x1DF JUMPI DUP1 PUSH4 0xC19D93FB EQ PUSH2 0x1F6 JUMPI DUP1 PUSH4 0xD6960697 EQ PUSH2 0x221 JUMPI DUP1 PUSH4 0xFF3CC6B0 EQ PUSH2 0x22B JUMPI PUSH2 0xA7 JUMP JUMPDEST DUP1 PUSH4 0x8551A53 EQ PUSH2 0xAC JUMPI DUP1 PUSH4 0x4A93E1E1 EQ PUSH2 0xD7 JUMPI DUP1 PUSH4 0x4C1786EA EQ PUSH2 0xEE JUMPI DUP1 PUSH4 0x5E10177B EQ PUSH2 0x119 JUMPI DUP1 PUSH4 0x6234216D EQ PUSH2 0x130 JUMPI DUP1 PUSH4 0x6F9FB98A EQ PUSH2 0x15E JUMPI JUMPDEST PUSH1 0x0 DUP1 REVERT JUMPDEST CALLVALUE DUP1 ISZERO PUSH2 0xB8 JUMPI PUSH1 0x0 DUP1 REVERT JUMPDEST POP PUSH2 0xC1 PUSH2 0x256 JUMP JUMPDEST PUSH1 0x40 MLOAD PUSH2 0xCE SWAP2 SWAP1 PUSH2 0x11F6 JUMP JUMPDEST PUSH1 0x40 MLOAD DUP1 SWAP2 SUB SWAP1 RETURN JUMPDEST CALLVALUE DUP1 ISZERO PUSH2 0xE3 JUMPI PUSH1 0x0 DUP1 REVERT JUMPDEST POP PUSH2 0xEC PUSH2 0x27A JUMP JUMPDEST STOP JUMPDEST CALLVALUE DUP1 ISZERO PUSH2 0xFA JUMPI PUSH1 0x0 DUP1 REVERT JUMPDEST POP PUSH2 0x103 PUSH2 0x3F7 JUMP JUMPDEST PUSH1 0x40 MLOAD PUSH2 0x110 SWAP2 SWAP1 PUSH2 0x122A JUMP JUMPDEST PUSH1 0x40 MLOAD DUP1 SWAP2 SUB SWAP1 RETURN JUMPDEST CALLVALUE DUP1 ISZERO PUSH2 0x125 JUMPI PUSH1 0x0 DUP1 REVERT JUMPDEST POP PUSH2 0x12E PUSH2 0x3FD JUMP JUMPDEST STOP JUMPDEST CALLVALUE DUP1 ISZERO PUSH2 0x13C JUMPI PUSH1 0x0 DUP1 REVERT JUMPDEST POP PUSH2 0x145 PUSH2 0x947 JUMP JUMPDEST PUSH1 0x40 MLOAD PUSH2 0x155 SWAP5 SWAP4 SWAP3 SWAP2 SWAP1 PUSH2 0x12BC JUMP JUMPDEST PUSH1 0x40 MLOAD DUP1 SWAP2 SUB SWAP1 RETURN JUMPDEST CALLVALUE DUP1 ISZERO PUSH2 0x16A JUMPI PUSH1 0x0 DUP1 REVERT JUMPDEST POP PUSH2 0x173 PUSH2 0x972 JUMP JUMPDEST PUSH1 0x40 MLOAD PUSH2 0x180 SWAP2 SWAP1 PUSH2 0x122A JUMP JUMPDEST PUSH1 0x40 MLOAD DUP1 SWAP2 SUB SWAP1 RETURN JUMPDEST CALLVALUE DUP1 ISZERO PUSH2 0x195 JUMPI PUSH1 0x0 DUP1 REVERT JUMPDEST POP PUSH2 0x19E PUSH2 0x97A JUMP JUMPDEST PUSH1 0x40 MLOAD PUSH2 0x1AB SWAP2 SWAP1 PUSH2 0x11F6 JUMP JUMPDEST PUSH1 0x40 MLOAD DUP1 SWAP2 SUB SWAP1 RETURN JUMPDEST CALLVALUE DUP1 ISZERO PUSH2 0x1C0 JUMPI PUSH1 0x0 DUP1 REVERT JUMPDEST POP PUSH2 0x1C9 PUSH2 0x99E JUMP JUMPDEST PUSH1 0x40 MLOAD PUSH2 0x1D6 SWAP2 SWAP1 PUSH2 0x122A JUMP JUMPDEST PUSH1 0x40 MLOAD DUP1 SWAP2 SUB SWAP1 RETURN JUMPDEST CALLVALUE DUP1 ISZERO PUSH2 0x1EB JUMPI PUSH1 0x0 DUP1 REVERT JUMPDEST POP PUSH2 0x1F4 PUSH2 0x9A4 JUMP JUMPDEST STOP JUMPDEST CALLVALUE DUP1 ISZERO PUSH2 0x202 JUMPI PUSH1 0x0 DUP1 REVERT JUMPDEST POP PUSH2 0x20B PUSH2 0xF01 JUMP JUMPDEST PUSH1 0x40 MLOAD PUSH2 0x218 SWAP2 SWAP1 PUSH2 0x1301 JUMP JUMPDEST PUSH1 0x40 MLOAD DUP1 SWAP2 SUB SWAP1 RETURN JUMPDEST PUSH2 0x229 PUSH2 0xF14 JUMP JUMPDEST STOP JUMPDEST CALLVALUE DUP1 ISZERO PUSH2 0x237 JUMPI PUSH1 0x0 DUP1 REVERT JUMPDEST POP PUSH2 0x240 PUSH2 0x1191 JUMP JUMPDEST PUSH1 0x40 MLOAD PUSH2 0x24D SWAP2 SWAP1 PUSH2 0x122A JUMP JUMPDEST PUSH1 0x40 MLOAD DUP1 SWAP2 SUB SWAP1 RETURN JUMPDEST PUSH32 0x0 DUP2 JUMP JUMPDEST PUSH32 0x0 PUSH20 0xFFFFFFFFFFFFFFFFFFFFFFFFFFFFFFFFFFFFFFFF AND CALLER PUSH20 0xFFFFFFFFFFFFFFFFFFFFFFFFFFFFFFFFFFFFFFFF AND EQ PUSH2 0x2FF JUMPI PUSH1 0x40 MLOAD PUSH32 0x85D1F72600000000000000000000000000000000000000000000000000000000 DUP2 MSTORE PUSH1 0x4 ADD PUSH1 0x40 MLOAD DUP1 SWAP2 SUB SWAP1 REVERT JUMPDEST PUSH1 0x2 DUP1 PUSH1 0x5 DUP2 GT ISZERO PUSH2 0x314 JUMPI PUSH2 0x313 PUSH2 0x1245 JUMP JUMPDEST JUMPDEST PUSH1 0x3 PUSH1 0x1 SWAP1 SLOAD SWAP1 PUSH2 0x100 EXP SWAP1 DIV PUSH1 0xFF AND PUSH1 0x5 DUP2 GT ISZERO PUSH2 0x336 JUMPI PUSH2 0x335 PUSH2 0x1245 JUMP JUMPDEST JUMPDEST EQ PUSH2 0x36D JUMPI PUSH1 0x40 MLOAD PUSH32 0xBAF3F0F700000000000000000000000000000000000000000000000000000000 DUP2 MSTORE PUSH1 0x4 ADD PUSH1 0x40 MLOAD DUP1 SWAP2 SUB SWAP1 REVERT JUMPDEST PUSH1 0x0 PUSH1 0x3 PUSH1 0x1 SWAP1 SLOAD SWAP1 PUSH2 0x100 EXP SWAP1 DIV PUSH1 0xFF AND SWAP1 POP PUSH1 0x3 DUP1 PUSH1 0x1 PUSH2 0x100 EXP DUP2 SLOAD DUP2 PUSH1 0xFF MUL NOT AND SWAP1 DUP4 PUSH1 0x5 DUP2 GT ISZERO PUSH2 0x3A6 JUMPI PUSH2 0x3A5 PUSH2 0x1245 JUMP JUMPDEST JUMPDEST MUL OR SWAP1 SSTORE POP PUSH32 0xE8A97EA87E4388FA22D496B95A8ED5CED6717F49790318DE2B928AAF37A021D8 DUP2 PUSH1 0x3 PUSH1 0x1 SWAP1 SLOAD SWAP1 PUSH2 0x100 EXP SWAP1 DIV PUSH1 0xFF AND PUSH1 0x40 MLOAD PUSH2 0x3EB SWAP3 SWAP2 SWAP1 PUSH2 0x131C JUMP JUMPDEST PUSH1 0x40 MLOAD DUP1 SWAP2 SUB SWAP1 LOG1 POP POP JUMP JUMPDEST PUSH1 0x2 SLOAD DUP2 JUMP JUMPDEST PUSH1 0x3 PUSH1 0x0 SWAP1 SLOAD SWAP1 PUSH2 0x100 EXP SWAP1 DIV PUSH1 0xFF AND ISZERO PUSH2 0x444 JUMPI PUSH1 0x40 MLOAD PUSH32 0x6F5FFB7E00000000000000000000000000000000000000000000000000000000 DUP2 MSTORE PUSH1 0x4 ADD PUSH1 0x40 MLOAD DUP1 SWAP2 SUB SWAP1 REVERT JUMPDEST PUSH1 0x1 PUSH1 0x3 PUSH1 0x0 PUSH2 0x100 EXP DUP2 SLOAD DUP2 PUSH1 0xFF MUL NOT AND SWAP1 DUP4 ISZERO ISZERO MUL OR SWAP1 SSTORE POP PUSH1 0x0 DUP1 SLOAD SWAP1 PUSH2 0x100 EXP SWAP1 DIV PUSH20 0xFFFFFFFFFFFFFFFFFFFFFFFFFFFFFFFFFFFFFFFF AND PUSH20 0xFFFFFFFFFFFFFFFFFFFFFFFFFFFFFFFFFFFFFFFF AND CALLER PUSH20 0xFFFFFFFFFFFFFFFFFFFFFFFFFFFFFFFFFFFFFFFF AND EQ PUSH2 0x4E4 JUMPI PUSH1 0x40 MLOAD PUSH32 0x86EFBB5500000000000000000000000000000000000000000000000000000000 DUP2 MSTORE PUSH1 0x4 ADD PUSH1 0x40 MLOAD DUP1 SWAP2 SUB SWAP1 REVERT JUMPDEST PUSH1 0x3 DUP1 PUSH1 0x5 DUP2 GT ISZERO PUSH2 0x4F9 JUMPI PUSH2 0x4F8 PUSH2 0x1245 JUMP JUMPDEST JUMPDEST PUSH1 0x3 PUSH1 0x1 SWAP1 SLOAD SWAP1 PUSH2 0x100 EXP SWAP1 DIV PUSH1 0xFF AND PUSH1 0x5 DUP2 GT ISZERO PUSH2 0x51B JUMPI PUSH2 0x51A PUSH2 0x1245 JUMP JUMPDEST JUMPDEST EQ PUSH2 0x552 JUMPI PUSH1 0x40 MLOAD PUSH32 0xBAF3F0F700000000000000000000000000000000000000000000000000000000 DUP2 MSTORE PUSH1 0x4 ADD PUSH1 0x40 MLOAD DUP1 SWAP2 SUB SWAP1 REVERT JUMPDEST PUSH1 0x1 SLOAD PUSH1 0x2 SLOAD PUSH2 0x562 SWAP2 SWAP1 PUSH2 0x1374 JUMP JUMPDEST SELFBALANCE LT ISZERO PUSH2 0x59B JUMPI PUSH1 0x40 MLOAD PUSH32 0x786E0A9900000000000000000000000000000000000000000000000000000000 DUP2 MSTORE PUSH1 0x4 ADD PUSH1 0x40 MLOAD DUP1 SWAP2 SUB SWAP1 REVERT JUMPDEST PUSH1 0x0 PUSH32 0x0 PUSH1 0x1 SLOAD PUSH2 0x5CB SWAP2 SWAP1 PUSH2 0x13A8 JUMP JUMPDEST SWAP1 POP PUSH1 0x0 PUSH32 0x0 PUSH1 0x2 SLOAD PUSH2 0x5FD SWAP2 SWAP1 PUSH2 0x1374 JUMP JUMPDEST SWAP1 POP PUSH1 0x0 PUSH1 0x3 PUSH1 0x1 SWAP1 SLOAD SWAP1 PUSH2 0x100 EXP SWAP1 DIV PUSH1 0xFF AND SWAP1 POP PUSH1 0x4 PUSH1 0x3 PUSH1 0x1 PUSH2 0x100 EXP DUP2 SLOAD DUP2 PUSH1 0xFF MUL NOT AND SWAP1 DUP4 PUSH1 0x5 DUP2 GT ISZERO PUSH2 0x639 JUMPI PUSH2 0x638 PUSH2 0x1245 JUMP JUMPDEST JUMPDEST MUL OR SWAP1 SSTORE POP PUSH1 0x0 PUSH32 0x0 PUSH20 0xFFFFFFFFFFFFFFFFFFFFFFFFFFFFFFFFFFFFFFFF AND DUP4 PUSH1 0x40 MLOAD PUSH2 0x684 SWAP1 PUSH2 0x140D JUMP JUMPDEST PUSH1 0x0 PUSH1 0x40 MLOAD DUP1 DUP4 SUB DUP2 DUP6 DUP8 GAS CALL SWAP3 POP POP POP RETURNDATASIZE DUP1 PUSH1 0x0 DUP2 EQ PUSH2 0x6C1 JUMPI PUSH1 0x40 MLOAD SWAP2 POP PUSH1 0x1F NOT PUSH1 0x3F RETURNDATASIZE ADD AND DUP3 ADD PUSH1 0x40 MSTORE RETURNDATASIZE DUP3 MSTORE RETURNDATASIZE PUSH1 0x0 PUSH1 0x20 DUP5 ADD RETURNDATACOPY PUSH2 0x6C6 JUMP JUMPDEST PUSH1 0x60 SWAP2 POP JUMPDEST POP POP SWAP1 POP DUP1 PUSH2 0x701 JUMPI PUSH1 0x40 MLOAD PUSH32 0x90B8EC1800000000000000000000000000000000000000000000000000000000 DUP2 MSTORE PUSH1 0x4 ADD PUSH1 0x40 MLOAD DUP1 SWAP2 SUB SWAP1 REVERT JUMPDEST PUSH32 0x0 PUSH20 0xFFFFFFFFFFFFFFFFFFFFFFFFFFFFFFFFFFFFFFFF AND PUSH32 0x80BABE757D4E5C7DB3B7BD10606A7BF07A9857F660977ADA6CA7A4D329376C8 DUP5 TIMESTAMP PUSH1 0x40 MLOAD PUSH2 0x769 SWAP3 SWAP2 SWAP1 PUSH2 0x1422 JUMP JUMPDEST PUSH1 0x40 MLOAD DUP1 SWAP2 SUB SWAP1 LOG2 PUSH1 0x0 DUP1 PUSH1 0x0 SWAP1 SLOAD SWAP1 PUSH2 0x100 EXP SWAP1 DIV PUSH20 0xFFFFFFFFFFFFFFFFFFFFFFFFFFFFFFFFFFFFFFFF AND PUSH20 0xFFFFFFFFFFFFFFFFFFFFFFFFFFFFFFFFFFFFFFFF AND DUP6 PUSH1 0x40 MLOAD PUSH2 0x7B8 SWAP1 PUSH2 0x140D JUMP JUMPDEST PUSH1 0x0 PUSH1 0x40 MLOAD DUP1 DUP4 SUB DUP2 DUP6 DUP8 GAS CALL SWAP3 POP POP POP RETURNDATASIZE DUP1 PUSH1 0x0 DUP2 EQ PUSH2 0x7F5 JUMPI PUSH1 0x40 MLOAD SWAP2 POP PUSH1 0x1F NOT PUSH1 0x3F RETURNDATASIZE ADD AND DUP3 ADD PUSH1 0x40 MSTORE RETURNDATASIZE DUP3 MSTORE RETURNDATASIZE PUSH1 0x0 PUSH1 0x20 DUP5 ADD RETURNDATACOPY PUSH2 0x7FA JUMP JUMPDEST PUSH1 0x60 SWAP2 POP JUMPDEST POP POP SWAP1 POP DUP1 PUSH2 0x835 JUMPI PUSH1 0x40 MLOAD PUSH32 0x90B8EC1800000000000000000000000000000000000000000000000000000000 DUP2 MSTORE PUSH1 0x4 ADD PUSH1 0x40 MLOAD DUP1 SWAP2 SUB SWAP1 REVERT JUMPDEST PUSH1 0x0 DUP1 SLOAD SWAP1 PUSH2 0x100 EXP SWAP1 DIV PUSH20 0xFFFFFFFFFFFFFFFFFFFFFFFFFFFFFFFFFFFFFFFF AND PUSH20 0xFFFFFFFFFFFFFFFFFFFFFFFFFFFFFFFFFFFFFFFF AND PUSH32 0x80BABE757D4E5C7DB3B7BD10606A7BF07A9857F660977ADA6CA7A4D329376C8 DUP7 TIMESTAMP PUSH1 0x40 MLOAD PUSH2 0x89D SWAP3 SWAP2 SWAP1 PUSH2 0x1422 JUMP JUMPDEST PUSH1 0x40 MLOAD DUP1 SWAP2 SUB SWAP1 LOG2 PUSH32 0xD2F1CDD76B4E7BFBA9C07AF47C5C4F187FFBBD992B4FA1AFCE4DF6A00A166E85 TIMESTAMP PUSH1 0x40 MLOAD PUSH2 0x8D4 SWAP2 SWAP1 PUSH2 0x122A JUMP JUMPDEST PUSH1 0x40 MLOAD DUP1 SWAP2 SUB SWAP1 LOG1 PUSH32 0xE8A97EA87E4388FA22D496B95A8ED5CED6717F49790318DE2B928AAF37A021D8 DUP4 PUSH1 0x3 PUSH1 0x1 SWAP1 SLOAD SWAP1 PUSH2 0x100 EXP SWAP1 DIV PUSH1 0xFF AND PUSH1 0x40 MLOAD PUSH2 0x91C SWAP3 SWAP2 SWAP1 PUSH2 0x131C JUMP JUMPDEST PUSH1 0x40 MLOAD DUP1 SWAP2 SUB SWAP1 LOG1 POP POP POP POP POP POP PUSH1 0x0 PUSH1 0x3 PUSH1 0x0 PUSH2 0x100 EXP DUP2 SLOAD DUP2 PUSH1 0xFF MUL NOT AND SWAP1 DUP4 ISZERO ISZERO MUL OR SWAP1 SSTORE POP JUMP JUMPDEST PUSH1 0x0 DUP1 PUSH1 0x0 DUP1 PUSH1 0x3 PUSH1 0x1 SWAP1 SLOAD SWAP1 PUSH2 0x100 EXP SWAP1 DIV PUSH1 0xFF AND SELFBALANCE PUSH1 0x1 SLOAD PUSH1 0x2 SLOAD SWAP4 POP SWAP4 POP SWAP4 POP SWAP4 POP SWAP1 SWAP2 SWAP3 SWAP4 JUMP JUMPDEST PUSH1 0x0 SELFBALANCE SWAP1 POP SWAP1 JUMP JUMPDEST PUSH1 0x0 DUP1 SLOAD SWAP1 PUSH2 0x100 EXP SWAP1 DIV PUSH20 0xFFFFFFFFFFFFFFFFFFFFFFFFFFFFFFFFFFFFFFFF AND DUP2 JUMP JUMPDEST PUSH1 0x1 SLOAD DUP2 JUMP JUMPDEST PUSH1 0x3 PUSH1 0x0 SWAP1 SLOAD SWAP1 PUSH2 0x100 EXP SWAP1 DIV PUSH1 0xFF AND ISZERO PUSH2 0x9EB JUMPI PUSH1 0x40 MLOAD PUSH32 0x6F5FFB7E00000000000000000000000000000000000000000000000000000000 DUP2 MSTORE PUSH1 0x4 ADD PUSH1 0x40 MLOAD DUP1 SWAP2 SUB SWAP1 REVERT JUMPDEST PUSH1 0x1 PUSH1 0x3 PUSH1 0x0 PUSH2 0x100 EXP DUP2 SLOAD DUP2 PUSH1 0xFF MUL NOT AND SWAP1 DUP4 ISZERO ISZERO MUL OR SWAP1 SSTORE POP PUSH1 0x2 DUP1 PUSH1 0x5 DUP2 GT ISZERO PUSH2 0xA1B JUMPI PUSH2 0xA1A PUSH2 0x1245 JUMP JUMPDEST JUMPDEST PUSH1 0x3 PUSH1 0x1 SWAP1 SLOAD SWAP1 PUSH2 0x100 EXP SWAP1 DIV PUSH1 0xFF AND PUSH1 0x5 DUP2 GT ISZERO PUSH2 0xA3D JUMPI PUSH2 0xA3C PUSH2 0x1245 JUMP JUMPDEST JUMPDEST EQ PUSH2 0xA74 JUMPI PUSH1 0x40 MLOAD PUSH32 0xBAF3F0F700000000000000000000000000000000000000000000000000000000 DUP2 MSTORE PUSH1 0x4 ADD PUSH1 0x40 MLOAD DUP1 SWAP2 SUB SWAP1 REVERT JUMPDEST PUSH1 0x0 DUP1 SLOAD SWAP1 PUSH2 0x100 EXP SWAP1 DIV PUSH20 0xFFFFFFFFFFFFFFFFFFFFFFFFFFFFFFFFFFFFFFFF AND PUSH20 0xFFFFFFFFFFFFFFFFFFFFFFFFFFFFFFFFFFFFFFFF AND CALLER PUSH20 0xFFFFFFFFFFFFFFFFFFFFFFFFFFFFFFFFFFFFFFFF AND EQ ISZERO DUP1 ISZERO PUSH2 0xB1C JUMPI POP PUSH32 0x0 PUSH20 0xFFFFFFFFFFFFFFFFFFFFFFFFFFFFFFFFFFFFFFFF AND CALLER PUSH20 0xFFFFFFFFFFFFFFFFFFFFFFFFFFFFFFFFFFFFFFFF AND EQ ISZERO JUMPDEST ISZERO PUSH2 0xB53 JUMPI PUSH1 0x40 MLOAD PUSH32 0xE6C4247B00000000000000000000000000000000000000000000000000000000 DUP2 MSTORE PUSH1 0x4 ADD PUSH1 0x40 MLOAD DUP1 SWAP2 SUB SWAP1 REVERT JUMPDEST PUSH1 0x1 SLOAD PUSH1 0x2 SLOAD PUSH2 0xB63 SWAP2 SWAP1 PUSH2 0x1374 JUMP JUMPDEST SELFBALANCE LT ISZERO PUSH2 0xB9C JUMPI PUSH1 0x40 MLOAD PUSH32 0x786E0A9900000000000000000000000000000000000000000000000000000000 DUP2 MSTORE PUSH1 0x4 ADD PUSH1 0x40 MLOAD DUP1 SWAP2 SUB SWAP1 REVERT JUMPDEST PUSH1 0x0 PUSH1 0x3 PUSH1 0x1 SWAP1 SLOAD SWAP1 PUSH2 0x100 EXP SWAP1 DIV PUSH1 0xFF AND SWAP1 POP PUSH1 0x5 PUSH1 0x3 PUSH1 0x1 PUSH2 0x100 EXP DUP2 SLOAD DUP2 PUSH1 0xFF MUL NOT AND SWAP1 DUP4 PUSH1 0x5 DUP2 GT ISZERO PUSH2 0xBD6 JUMPI PUSH2 0xBD5 PUSH2 0x1245 JUMP JUMPDEST JUMPDEST MUL OR SWAP1 SSTORE POP PUSH1 0x0 PUSH32 0x0 PUSH20 0xFFFFFFFFFFFFFFFFFFFFFFFFFFFFFFFFFFFFFFFF AND PUSH1 0x2 SLOAD PUSH1 0x40 MLOAD PUSH2 0xC23 SWAP1 PUSH2 0x140D JUMP JUMPDEST PUSH1 0x0 PUSH1 0x40 MLOAD DUP1 DUP4 SUB DUP2 DUP6 DUP8 GAS CALL SWAP3 POP POP POP RETURNDATASIZE DUP1 PUSH1 0x0 DUP2 EQ PUSH2 0xC60 JUMPI PUSH1 0x40 MLOAD SWAP2 POP PUSH1 0x1F NOT PUSH1 0x3F RETURNDATASIZE ADD AND DUP3 ADD PUSH1 0x40 MSTORE RETURNDATASIZE DUP3 MSTORE RETURNDATASIZE PUSH1 0x0 PUSH1 0x20 DUP5 ADD RETURNDATACOPY PUSH2 0xC65 JUMP JUMPDEST PUSH1 0x60 SWAP2 POP JUMPDEST POP POP SWAP1 POP DUP1 PUSH2 0xCA0 JUMPI PUSH1 0x40 MLOAD PUSH32 0x90B8EC1800000000000000000000000000000000000000000000000000000000 DUP2 MSTORE PUSH1 0x4 ADD PUSH1 0x40 MLOAD DUP1 SWAP2 SUB SWAP1 REVERT JUMPDEST PUSH32 0x0 PUSH20 0xFFFFFFFFFFFFFFFFFFFFFFFFFFFFFFFFFFFFFFFF AND PUSH32 0x80BABE757D4E5C7DB3B7BD10606A7BF07A9857F660977ADA6CA7A4D329376C8 PUSH1 0x2 SLOAD TIMESTAMP PUSH1 0x40 MLOAD PUSH2 0xD0A SWAP3 SWAP2 SWAP1 PUSH2 0x1422 JUMP JUMPDEST PUSH1 0x40 MLOAD DUP1 SWAP2 SUB SWAP1 LOG2 PUSH1 0x0 DUP1 PUSH1 0x0 SWAP1 SLOAD SWAP1 PUSH2 0x100 EXP SWAP1 DIV PUSH20 0xFFFFFFFFFFFFFFFFFFFFFFFFFFFFFFFFFFFFFFFF AND PUSH20 0xFFFFFFFFFFFFFFFFFFFFFFFFFFFFFFFFFFFFFFFF AND PUSH1 0x1 SLOAD PUSH1 0x40 MLOAD PUSH2 0xD5B SWAP1 PUSH2 0x140D JUMP JUMPDEST PUSH1 0x0 PUSH1 0x40 MLOAD DUP1 DUP4 SUB DUP2 DUP6 DUP8 GAS CALL SWAP3 POP POP POP RETURNDATASIZE DUP1 PUSH1 0x0 DUP2 EQ PUSH2 0xD98 JUMPI PUSH1 0x40 MLOAD SWAP2 POP PUSH1 0x1F NOT PUSH1 0x3F RETURNDATASIZE ADD AND DUP3 ADD PUSH1 0x40 MSTORE RETURNDATASIZE DUP3 MSTORE RETURNDATASIZE PUSH1 0x0 PUSH1 0x20 DUP5 ADD RETURNDATACOPY PUSH2 0xD9D JUMP JUMPDEST PUSH1 0x60 SWAP2 POP JUMPDEST POP POP SWAP1 POP DUP1 PUSH2 0xDD8 JUMPI PUSH1 0x40 MLOAD PUSH32 0x90B8EC1800000000000000000000000000000000000000000000000000000000 DUP2 MSTORE PUSH1 0x4 ADD PUSH1 0x40 MLOAD DUP1 SWAP2 SUB SWAP1 REVERT JUMPDEST PUSH1 0x0 DUP1 SLOAD SWAP1 PUSH2 0x100 EXP SWAP1 DIV PUSH20 0xFFFFFFFFFFFFFFFFFFFFFFFFFFFFFFFFFFFFFFFF AND PUSH20 0xFFFFFFFFFFFFFFFFFFFFFFFFFFFFFFFFFFFFFFFF AND PUSH32 0x80BABE757D4E5C7DB3B7BD10606A7BF07A9857F660977ADA6CA7A4D329376C8 PUSH1 0x1 SLOAD TIMESTAMP PUSH1 0x40 MLOAD PUSH2 0xE42 SWAP3 SWAP2 SWAP1 PUSH2 0x1422 JUMP JUMPDEST PUSH1 0x40 MLOAD DUP1 SWAP2 SUB SWAP1 LOG2 CALLER PUSH20 0xFFFFFFFFFFFFFFFFFFFFFFFFFFFFFFFFFFFFFFFF AND PUSH32 0xCCC59847AF7A167EC8B2425941698E5398A4EAB0218FA343ACEE62E5F01F5643 TIMESTAMP PUSH1 0x40 MLOAD PUSH2 0xE90 SWAP2 SWAP1 PUSH2 0x122A JUMP JUMPDEST PUSH1 0x40 MLOAD DUP1 SWAP2 SUB SWAP1 LOG2 PUSH32 0xE8A97EA87E4388FA22D496B95A8ED5CED6717F49790318DE2B928AAF37A021D8 DUP4 PUSH1 0x3 PUSH1 0x1 SWAP1 SLOAD SWAP1 PUSH2 0x100 EXP SWAP1 DIV PUSH1 0xFF AND PUSH1 0x40 MLOAD PUSH2 0xED8 SWAP3 SWAP2 SWAP1 PUSH2 0x131C JUMP JUMPDEST PUSH1 0x40 MLOAD DUP1 SWAP2 SUB SWAP1 LOG1 POP POP POP POP PUSH1 0x0 PUSH1 0x3 PUSH1 0x0 PUSH2 0x100 EXP DUP2 SLOAD DUP2 PUSH1 0xFF MUL NOT AND SWAP1 DUP4 ISZERO ISZERO MUL OR SWAP1 SSTORE POP JUMP JUMPDEST PUSH1 0x3 PUSH1 0x1 SWAP1 SLOAD SWAP1 PUSH2 0x100 EXP SWAP1 DIV PUSH1 0xFF AND DUP2 JUMP JUMPDEST PUSH1 0x1 DUP1 PUSH1 0x5 DUP2 GT ISZERO PUSH2 0xF29 JUMPI PUSH2 0xF28 PUSH2 0x1245 JUMP JUMPDEST JUMPDEST PUSH1 0x3 PUSH1 0x1 SWAP1 SLOAD SWAP1 PUSH2 0x100 EXP SWAP1 DIV PUSH1 0xFF AND PUSH1 0x5 DUP2 GT ISZERO PUSH2 0xF4B JUMPI PUSH2 0xF4A PUSH2 0x1245 JUMP JUMPDEST JUMPDEST EQ PUSH2 0xF82 JUMPI PUSH1 0x40 MLOAD PUSH32 0xBAF3F0F700000000000000000000000000000000000000000000000000000000 DUP2 MSTORE PUSH1 0x4 ADD PUSH1 0x40 MLOAD DUP1 SWAP2 SUB SWAP1 REVERT JUMPDEST CALLER PUSH1 0x0 PUSH20 0xFFFFFFFFFFFFFFFFFFFFFFFFFFFFFFFFFFFFFFFF AND DUP2 PUSH20 0xFFFFFFFFFFFFFFFFFFFFFFFFFFFFFFFFFFFFFFFF AND SUB PUSH2 0xFE9 JUMPI PUSH1 0x40 MLOAD PUSH32 0xE6C4247B00000000000000000000000000000000000000000000000000000000 DUP2 MSTORE PUSH1 0x4 ADD PUSH1 0x40 MLOAD DUP1 SWAP2 SUB SWAP1 REVERT JUMPDEST PUSH32 0x0 PUSH1 0x2 PUSH2 0x1016 SWAP2 SWAP1 PUSH2 0x144B JUMP JUMPDEST CALLVALUE EQ PUSH2 0x104E JUMPI PUSH1 0x40 MLOAD PUSH32 0x6992E1FF00000000000000000000000000000000000000000000000000000000 DUP2 MSTORE PUSH1 0x4 ADD PUSH1 0x40 MLOAD DUP1 SWAP2 SUB SWAP1 REVERT JUMPDEST CALLER PUSH1 0x0 DUP1 PUSH2 0x100 EXP DUP2 SLOAD DUP2 PUSH20 0xFFFFFFFFFFFFFFFFFFFFFFFFFFFFFFFFFFFFFFFF MUL NOT AND SWAP1 DUP4 PUSH20 0xFFFFFFFFFFFFFFFFFFFFFFFFFFFFFFFFFFFFFFFF AND MUL OR SWAP1 SSTORE POP CALLVALUE PUSH1 0x1 DUP2 SWAP1 SSTORE POP PUSH1 0x0 PUSH1 0x3 PUSH1 0x1 SWAP1 SLOAD SWAP1 PUSH2 0x100 EXP SWAP1 DIV PUSH1 0xFF AND SWAP1 POP PUSH1 0x2 PUSH1 0x3 PUSH1 0x1 PUSH2 0x100 EXP DUP2 SLOAD DUP2 PUSH1 0xFF MUL NOT AND SWAP1 DUP4 PUSH1 0x5 DUP2 GT ISZERO PUSH2 0x10CF JUMPI PUSH2 0x10CE PUSH2 0x1245 JUMP JUMPDEST JUMPDEST MUL OR SWAP1 SSTORE POP PUSH1 0x0 DUP1 SLOAD SWAP1 PUSH2 0x100 EXP SWAP1 DIV PUSH20 0xFFFFFFFFFFFFFFFFFFFFFFFFFFFFFFFFFFFFFFFF AND PUSH20 0xFFFFFFFFFFFFFFFFFFFFFFFFFFFFFFFFFFFFFFFF AND PUSH32 0xB05F0D1CD0819F155B8A61F60BAF7767C1EE49D04AEAAB701DF236140EB93F9 CALLVALUE TIMESTAMP PUSH1 0x40 MLOAD PUSH2 0x113C SWAP3 SWAP2 SWAP1 PUSH2 0x1422 JUMP JUMPDEST PUSH1 0x40 MLOAD DUP1 SWAP2 SUB SWAP1 LOG2 PUSH32 0xE8A97EA87E4388FA22D496B95A8ED5CED6717F49790318DE2B928AAF37A021D8 DUP2 PUSH1 0x3 PUSH1 0x1 SWAP1 SLOAD SWAP1 PUSH2 0x100 EXP SWAP1 DIV PUSH1 0xFF AND PUSH1 0x40 MLOAD PUSH2 0x1184 SWAP3 SWAP2 SWAP1 PUSH2 0x131C JUMP JUMPDEST PUSH1 0x40 MLOAD DUP1 SWAP2 SUB SWAP1 LOG1 POP POP POP JUMP JUMPDEST PUSH32 0x0 DUP2 JUMP JUMPDEST PUSH1 0x0 PUSH20 0xFFFFFFFFFFFFFFFFFFFFFFFFFFFFFFFFFFFFFFFF DUP3 AND SWAP1 POP SWAP2 SWAP1 POP JUMP JUMPDEST PUSH1 0x0 PUSH2 0x11E0 DUP3 PUSH2 0x11B5 JUMP JUMPDEST SWAP1 POP SWAP2 SWAP1 POP JUMP JUMPDEST PUSH2 0x11F0 DUP2 PUSH2 0x11D5 JUMP JUMPDEST DUP3 MSTORE POP POP JUMP JUMPDEST PUSH1 0x0 PUSH1 0x20 DUP3 ADD SWAP1 POP PUSH2 0x120B PUSH1 0x0 DUP4 ADD DUP5 PUSH2 0x11E7 JUMP JUMPDEST SWAP3 SWAP2 POP POP JUMP JUMPDEST PUSH1 0x0 DUP2 SWAP1 POP SWAP2 SWAP1 POP JUMP JUMPDEST PUSH2 0x1224 DUP2 PUSH2 0x1211 JUMP JUMPDEST DUP3 MSTORE POP POP JUMP JUMPDEST PUSH1 0x0 PUSH1 0x20 DUP3 ADD SWAP1 POP PUSH2 0x123F PUSH1 0x0 DUP4 ADD DUP5 PUSH2 0x121B JUMP JUMPDEST SWAP3 SWAP2 POP POP JUMP JUMPDEST PUSH32 0x4E487B7100000000000000000000000000000000000000000000000000000000 PUSH1 0x0 MSTORE PUSH1 0x21 PUSH1 0x4 MSTORE PUSH1 0x24 PUSH1 0x0 REVERT JUMPDEST PUSH1 0x6 DUP2 LT PUSH2 0x1285 JUMPI PUSH2 0x1284 PUSH2 0x1245 JUMP JUMPDEST JUMPDEST POP JUMP JUMPDEST PUSH1 0x0 DUP2 SWAP1 POP PUSH2 0x1296 DUP3 PUSH2 0x1274 JUMP JUMPDEST SWAP2 SWAP1 POP JUMP JUMPDEST PUSH1 0x0 PUSH2 0x12A6 DUP3 PUSH2 0x1288 JUMP JUMPDEST SWAP1 POP SWAP2 SWAP1 POP JUMP JUMPDEST PUSH2 0x12B6 DUP2 PUSH2 0x129B JUMP JUMPDEST DUP3 MSTORE POP POP JUMP JUMPDEST PUSH1 0x0 PUSH1 0x80 DUP3 ADD SWAP1 POP PUSH2 0x12D1 PUSH1 0x0 DUP4 ADD DUP8 PUSH2 0x12AD JUMP JUMPDEST PUSH2 0x12DE PUSH1 0x20 DUP4 ADD DUP7 PUSH2 0x121B JUMP JUMPDEST PUSH2 0x12EB PUSH1 0x40 DUP4 ADD DUP6 PUSH2 0x121B JUMP JUMPDEST PUSH2 0x12F8 PUSH1 0x60 DUP4 ADD DUP5 PUSH2 0x121B JUMP JUMPDEST SWAP6 SWAP5 POP POP POP POP POP JUMP JUMPDEST PUSH1 0x0 PUSH1 0x20 DUP3 ADD SWAP1 POP PUSH2 0x1316 PUSH1 0x0 DUP4 ADD DUP5 PUSH2 0x12AD JUMP JUMPDEST SWAP3 SWAP2 POP POP JUMP JUMPDEST PUSH1 0x0 PUSH1 0x40 DUP3 ADD SWAP1 POP PUSH2 0x1331 PUSH1 0x0 DUP4 ADD DUP6 PUSH2 0x12AD JUMP JUMPDEST PUSH2 0x133E PUSH1 0x20 DUP4 ADD DUP5 PUSH2 0x12AD JUMP JUMPDEST SWAP4 SWAP3 POP POP POP JUMP JUMPDEST PUSH32 0x4E487B7100000000000000000000000000000000000000000000000000000000 PUSH1 0x0 MSTORE PUSH1 0x11 PUSH1 0x4 MSTORE PUSH1 0x24 PUSH1 0x0 REVERT JUMPDEST PUSH1 0x0 PUSH2 0x137F DUP3 PUSH2 0x1211 JUMP JUMPDEST SWAP2 POP PUSH2 0x138A DUP4 PUSH2 0x1211 JUMP JUMPDEST SWAP3 POP DUP3 DUP3 ADD SWAP1 POP DUP1 DUP3 GT ISZERO PUSH2 0x13A2 JUMPI PUSH2 0x13A1 PUSH2 0x1345 JUMP JUMPDEST JUMPDEST SWAP3 SWAP2 POP POP JUMP JUMPDEST PUSH1 0x0 PUSH2 0x13B3 DUP3 PUSH2 0x1211 JUMP JUMPDEST SWAP2 POP PUSH2 0x13BE DUP4 PUSH2 0x1211 JUMP JUMPDEST SWAP3 POP DUP3 DUP3 SUB SWAP1 POP DUP2 DUP2 GT ISZERO PUSH2 0x13D6 JUMPI PUSH2 0x13D5 PUSH2 0x1345 JUMP JUMPDEST JUMPDEST SWAP3 SWAP2 POP POP JUMP JUMPDEST PUSH1 0x0 DUP2 SWAP1 POP SWAP3 SWAP2 POP POP JUMP JUMPDEST POP JUMP JUMPDEST PUSH1 0x0 PUSH2 0x13F7 PUSH1 0x0 DUP4 PUSH2 0x13DC JUMP JUMPDEST SWAP2 POP PUSH2 0x1402 DUP3 PUSH2 0x13E7 JUMP JUMPDEST PUSH1 0x0 DUP3 ADD SWAP1 POP SWAP2 SWAP1 POP JUMP JUMPDEST PUSH1 0x0 PUSH2 0x1418 DUP3 PUSH2 0x13EA JUMP JUMPDEST SWAP2 POP DUP2 SWAP1 POP SWAP2 SWAP1 POP JUMP JUMPDEST PUSH1 0x0 PUSH1 0x40 DUP3 ADD SWAP1 POP PUSH2 0x1437 PUSH1 0x0 DUP4 ADD DUP6 PUSH2 0x121B JUMP JUMPDEST PUSH2 0x1444 PUSH1 0x20 DUP4 ADD DUP5 PUSH2 0x121B JUMP JUMPDEST SWAP4 SWAP3 POP POP POP JUMP JUMPDEST PUSH1 0x0 PUSH2 0x1456 DUP3 PUSH2 0x1211 JUMP JUMPDEST SWAP2 POP PUSH2 0x1461 DUP4 PUSH2 0x1211 JUMP JUMPDEST SWAP3 POP DUP3 DUP3 MUL PUSH2 0x146F DUP2 PUSH2 0x1211 JUMP JUMPDEST SWAP2 POP DUP3 DUP3 DIV DUP5 EQ DUP4 ISZERO OR PUSH2 0x1486 JUMPI PUSH2 0x1485 PUSH2 0x1345 JUMP JUMPDEST JUMPDEST POP SWAP3 SWAP2 POP POP JUMP INVALID LOG2 PUSH5 0x6970667358 0x22 SLT KECCAK256 0xB8 0xB0 SWAP9 0xFB DUP14 DUP6 0x4F 0xDF 0xD8 DUP1 PUSH29 0x92ECCCF698A4027BE24304B69D14FA04D984CD992664736F6C63430008 SHR STOP CALLER "},"methodIdentifiers":{"buyer()":"7150d8ae","buyerDeposit()":"a0579587","cancelPurchase()":"ab460a26","confirmDelivery()":"5e10177b","confirmPurchase()":"d6960697","confirmShipping()":"4a93e1e1","getContractBalance()":"6f9fb98a","getEscrowStatus()":"6234216d","itemValue()":"ff3cc6b0","seller()":"08551a53","sellerDeposit()":"4c1786ea","state()":"c19d93fb"}}}}}